{
  "contractName": "Airline",
  "abi": [
    {
      "inputs": [],
      "payable": false,
      "stateMutability": "nonpayable",
      "type": "constructor"
    },
    {
      "anonymous": false,
      "inputs": [
        {
          "indexed": true,
          "internalType": "address",
          "name": "customer",
          "type": "address"
        },
        {
          "indexed": false,
          "internalType": "uint256",
          "name": "price",
          "type": "uint256"
        },
        {
          "indexed": false,
          "internalType": "string",
          "name": "flight",
          "type": "string"
        }
      ],
      "name": "FlightPurchased",
      "type": "event"
    },
    {
      "constant": true,
      "inputs": [
        {
          "internalType": "address",
          "name": "",
          "type": "address"
        },
        {
          "internalType": "uint256",
          "name": "",
          "type": "uint256"
        }
      ],
      "name": "customerFlights",
      "outputs": [
        {
          "internalType": "string",
          "name": "name",
          "type": "string"
        },
        {
          "internalType": "uint256",
          "name": "price",
          "type": "uint256"
        }
      ],
      "payable": false,
      "stateMutability": "view",
      "type": "function"
    },
    {
      "constant": true,
      "inputs": [
        {
          "internalType": "address",
          "name": "",
          "type": "address"
        }
      ],
      "name": "customerTotalFlights",
      "outputs": [
        {
          "internalType": "uint256",
          "name": "",
          "type": "uint256"
        }
      ],
      "payable": false,
      "stateMutability": "view",
      "type": "function"
    },
    {
      "constant": true,
      "inputs": [
        {
          "internalType": "address",
          "name": "",
          "type": "address"
        }
      ],
      "name": "customers",
      "outputs": [
        {
          "internalType": "uint256",
          "name": "loyaltyPoints",
          "type": "uint256"
        },
        {
          "internalType": "uint256",
          "name": "totalFlights",
          "type": "uint256"
        }
      ],
      "payable": false,
      "stateMutability": "view",
      "type": "function"
    },
    {
      "constant": true,
      "inputs": [
        {
          "internalType": "uint256",
          "name": "",
          "type": "uint256"
        }
      ],
      "name": "flights",
      "outputs": [
        {
          "internalType": "string",
          "name": "name",
          "type": "string"
        },
        {
          "internalType": "uint256",
          "name": "price",
          "type": "uint256"
        }
      ],
      "payable": false,
      "stateMutability": "view",
      "type": "function"
    },
    {
      "constant": true,
      "inputs": [],
      "name": "owner",
      "outputs": [
        {
          "internalType": "address",
          "name": "",
          "type": "address"
        }
      ],
      "payable": false,
      "stateMutability": "view",
      "type": "function"
    },
    {
      "constant": false,
      "inputs": [
        {
          "internalType": "uint256",
          "name": "flightIndex",
          "type": "uint256"
        }
      ],
      "name": "buyFlight",
      "outputs": [],
      "payable": true,
      "stateMutability": "payable",
      "type": "function"
    },
    {
      "constant": true,
      "inputs": [],
      "name": "getTotalFlights",
      "outputs": [
        {
          "internalType": "uint256",
          "name": "",
          "type": "uint256"
        }
      ],
      "payable": false,
      "stateMutability": "view",
      "type": "function"
    },
    {
      "constant": true,
      "inputs": [],
      "name": "getRefundableEther",
      "outputs": [
        {
          "internalType": "uint256",
          "name": "",
          "type": "uint256"
        }
      ],
      "payable": false,
      "stateMutability": "view",
      "type": "function"
    },
    {
      "constant": false,
      "inputs": [],
      "name": "redeemLoyaltyPoints",
      "outputs": [],
      "payable": false,
      "stateMutability": "nonpayable",
      "type": "function"
    },
    {
      "constant": true,
      "inputs": [],
      "name": "getAirlineBalance",
      "outputs": [
        {
          "internalType": "uint256",
          "name": "",
          "type": "uint256"
        }
      ],
      "payable": false,
      "stateMutability": "view",
      "type": "function"
    }
  ],
  "bytecode": "0x60806040526601c6bf5263400060015534801561001b57600080fd5b50336000806101000a81548173ffffffffffffffffffffffffffffffffffffffff021916908373ffffffffffffffffffffffffffffffffffffffff160217905550600260405180604001604052806040518060400160405280600581526020017f546f6b696f0000000000000000000000000000000000000000000000000000008152508152602001660e35fa931a00008152509080600181540180825580915050906001820390600052602060002090600202016000909192909190915060008201518160000190805190602001906100f6929190610259565b5060208201518160010155505050600260405180604001604052806040518060400160405280600681526020017f4d756e69636800000000000000000000000000000000000000000000000000008152508152602001660aa87bee53800081525090806001815401808255809150509060018203906000526020600020906002020160009091929091909150600082015181600001908051906020019061019e929190610259565b5060208201518160010155505050600260405180604001604052806040518060400160405280600681526020017f4d616472696400000000000000000000000000000000000000000000000000008152508152602001660aa87bee538000815250908060018154018082558091505090600182039060005260206000209060020201600090919290919091506000820151816000019080519060200190610246929190610259565b50602082015181600101555050506102fe565b828054600181600116156101000203166002900490600052602060002090601f016020900481019282601f1061029a57805160ff19168380011785556102c8565b828001600101855582156102c8579182015b828111156102c75782518255916020019190600101906102ac565b5b5090506102d591906102d9565b5090565b6102fb91905b808211156102f75760008160009055506001016102df565b5090565b90565b610c658061030d6000396000f3fe6080604052600436106100915760003560e01c80633b31eeae116100595780633b31eeae14610241578063819594271461026c5780638da5cb5b14610347578063f269365a1461039e578063f997114f1461040357610091565b80630ca97e481461009657806315ccf70f146100c45780632411ff731461017f57806329cd30b4146101aa578063336989ae146101d5575b600080fd5b6100c2600480360360208110156100ac57600080fd5b810190808035906020019092919050505061041a565b005b3480156100d057600080fd5b506100fd600480360360208110156100e757600080fd5b8101908080359060200190929190505050610784565b6040518080602001838152602001828103825284818151815260200191508051906020019080838360005b83811015610143578082015181840152602081019050610128565b50505050905090810190601f1680156101705780820380516001836020036101000a031916815260200191505b50935050505060405180910390f35b34801561018b57600080fd5b5061019461084d565b6040518082815260200191505060405180910390f35b3480156101b657600080fd5b506101bf61089b565b6040518082815260200191505060405180910390f35b3480156101e157600080fd5b50610224600480360360208110156101f857600080fd5b81019080803573ffffffffffffffffffffffffffffffffffffffff1690602001909291905050506108fc565b604051808381526020018281526020019250505060405180910390f35b34801561024d57600080fd5b50610256610920565b6040518082815260200191505060405180910390f35b34801561027857600080fd5b506102c56004803603604081101561028f57600080fd5b81019080803573ffffffffffffffffffffffffffffffffffffffff1690602001909291908035906020019092919050505061092d565b6040518080602001838152602001828103825284818151815260200191508051906020019080838360005b8381101561030b5780820151818401526020810190506102f0565b50505050905090810190601f1680156103385780820380516001836020036101000a031916815260200191505b50935050505060405180910390f35b34801561035357600080fd5b5061035c610a03565b604051808273ffffffffffffffffffffffffffffffffffffffff1673ffffffffffffffffffffffffffffffffffffffff16815260200191505060405180910390f35b3480156103aa57600080fd5b506103ed600480360360208110156103c157600080fd5b81019080803573ffffffffffffffffffffffffffffffffffffffff169060200190929190505050610a28565b6040518082815260200191505060405180910390f35b34801561040f57600080fd5b50610418610a40565b005b610422610b3d565b6002828154811061042f57fe5b9060005260206000209060020201604051806040016040529081600082018054600181600116156101000203166002900480601f0160208091040260200160405190810160405280929190818152602001828054600181600116156101000203166002900480156104e15780601f106104b6576101008083540402835291602001916104e1565b820191906000526020600020905b8154815290600101906020018083116104c457829003601f168201915b5050505050815260200160018201548152505090508060200151341461056f576040517f08c379a000000000000000000000000000000000000000000000000000000000815260040180806020018281038252600f8152602001807f496e636f7272656374207072696365000000000000000000000000000000000081525060200191505060405180910390fd5b6000600360003373ffffffffffffffffffffffffffffffffffffffff1673ffffffffffffffffffffffffffffffffffffffff16815260200190815260200160002090506005816000016000828254019250508190555060018160010160008282540192505081905550600460003373ffffffffffffffffffffffffffffffffffffffff1673ffffffffffffffffffffffffffffffffffffffff1681526020019081526020016000208290806001815401808255809150509060018203906000526020600020906002020160009091929091909150600082015181600001908051906020019061065f929190610b57565b5060208201518160010155505050600560003373ffffffffffffffffffffffffffffffffffffffff1673ffffffffffffffffffffffffffffffffffffffff168152602001908152602001600020600081548092919060010191905055503373ffffffffffffffffffffffffffffffffffffffff167f1a02c9b180301ecb4108648e8e1cd231f2857cc169519367000f7380f57566c4836020015184600001516040518083815260200180602001828103825283818151815260200191508051906020019080838360005b83811015610744578082015181840152602081019050610729565b50505050905090810190601f1680156107715780820380516001836020036101000a031916815260200191505b50935050505060405180910390a2505050565b6002818154811061079157fe5b9060005260206000209060020201600091509050806000018054600181600116156101000203166002900480601f01602080910402602001604051908101604052809291908181526020018280546001816001161561010002031660029004801561083d5780601f106108125761010080835404028352916020019161083d565b820191906000526020600020905b81548152906001019060200180831161082057829003601f168201915b5050505050908060010154905082565b6000600360003373ffffffffffffffffffffffffffffffffffffffff1673ffffffffffffffffffffffffffffffffffffffff1681526020019081526020016000206000015460015402905090565b60008060009054906101000a900473ffffffffffffffffffffffffffffffffffffffff1673ffffffffffffffffffffffffffffffffffffffff163373ffffffffffffffffffffffffffffffffffffffff16146108f657600080fd5b47905090565b60036020528060005260406000206000915090508060000154908060010154905082565b6000600280549050905090565b6004602052816000526040600020818154811061094657fe5b906000526020600020906002020160009150915050806000018054600181600116156101000203166002900480601f0160208091040260200160405190810160405280929190818152602001828054600181600116156101000203166002900480156109f35780601f106109c8576101008083540402835291602001916109f3565b820191906000526020600020905b8154815290600101906020018083116109d657829003601f168201915b5050505050908060010154905082565b6000809054906101000a900473ffffffffffffffffffffffffffffffffffffffff1681565b60056020528060005260406000206000915090505481565b6000600360003373ffffffffffffffffffffffffffffffffffffffff1673ffffffffffffffffffffffffffffffffffffffff168152602001908152602001600020905060008160000154600154029050804711610ae8576040517f08c379a0000000000000000000000000000000000000000000000000000000008152600401808060200182810382526034815260200180610bfd6034913960400191505060405180910390fd5b3373ffffffffffffffffffffffffffffffffffffffff166108fc829081150290604051600060405180830381858888f19350505050158015610b2e573d6000803e3d6000fd5b50600082600001819055505050565b604051806040016040528060608152602001600081525090565b828054600181600116156101000203166002900490600052602060002090601f016020900481019282601f10610b9857805160ff1916838001178555610bc6565b82800160010185558215610bc6579182015b82811115610bc5578251825591602001919060010190610baa565b5b509050610bd39190610bd7565b5090565b610bf991905b80821115610bf5576000816000905550600101610bdd565b5090565b9056fe4e6f2068617920737566696369656e746520657468657220656e20656c20636f6e747261746f2070617261206465766f6c766572a265627a7a72315820d050d12928752884494cf35533eb07665a0aaea3135756c6c9aad4f71e49302a64736f6c63430005100032",
  "source": "// SPDX-License-Identifier: MIT\r\npragma solidity >=0.4.21 <8.10.0;\r\n\r\ncontract Airline {\r\n    address public owner;\r\n    struct Customer {\r\n        uint256 loyaltyPoints;\r\n        uint256 totalFlights;\r\n    }\r\n\r\n    struct Flight {\r\n        string name;\r\n        uint256 price;\r\n    }\r\n\r\n    uint256 etherPerPoint = 0.0005 ether;\r\n\r\n    Flight[] public flights;\r\n\r\n    mapping(address => Customer) public customers;\r\n    mapping(address => Flight[]) public customerFlights;\r\n    mapping(address => uint256) public customerTotalFlights;\r\n\r\n    event FlightPurchased(\r\n        address indexed customer,\r\n        uint256 price,\r\n        string flight\r\n    );\r\n\r\n    constructor() public {\r\n        owner = msg.sender;\r\n        flights.push(Flight(\"Tokio\", 0.004 ether));\r\n        flights.push(Flight(\"Munich\", 0.003 ether));\r\n        flights.push(Flight(\"Madrid\", 0.003 ether));\r\n    }\r\n\r\n    function buyFlight(uint256 flightIndex) public payable {\r\n        Flight memory flight = flights[flightIndex];\r\n        require(msg.value == flight.price, \"Incorrect price\");\r\n\r\n        Customer storage customer = customers[msg.sender];\r\n        customer.loyaltyPoints += 5;\r\n        customer.totalFlights += 1;\r\n        customerFlights[msg.sender].push(flight);\r\n        customerTotalFlights[msg.sender]++;\r\n\r\n        emit FlightPurchased(msg.sender, flight.price, flight.name);\r\n    }\r\n\r\n    function getTotalFlights() public view returns (uint256) {\r\n        return flights.length;\r\n    }\r\n\r\n    function getRefundableEther() public view returns (uint256) {\r\n        return etherPerPoint * customers[msg.sender].loyaltyPoints;\r\n    }\r\n\r\n    function redeemLoyaltyPoints() public {\r\n        Customer storage customer = customers[msg.sender];\r\n        uint256 etherToRefound = etherPerPoint * customer.loyaltyPoints;\r\n\r\n        require(\r\n            address(this).balance > etherToRefound,\r\n            \"No hay suficiente ether en el contrato para devolver\"\r\n        );\r\n        msg.sender.transfer(etherToRefound);\r\n\r\n        customer.loyaltyPoints = 0;\r\n    }\r\n\r\n    function getAirlineBalance() public view isOwner returns (uint256) {\r\n        return address(this).balance;\r\n    }\r\n\r\n    modifier isOwner() {\r\n        require(msg.sender == owner);\r\n        _;\r\n    }\r\n}\r\n",
  "sourcePath": "C:\\Users\\Rokket\\Desktop\\airline-dapp\\contracts\\Airline.sol",
  "compiler": {
    "name": "solc",
    "version": "0.5.16+commit.9c3226ce.Emscripten.clang"
  },
  "schemaVersion": "3.4.6",
  "updatedAt": "2022-04-04T19:36:49.114Z",
  "networkType": "ethereum",
  "devdoc": {
    "methods": {}
  },
  "userdoc": {
    "methods": {}
  }
}